{"contracts/ExampleSupplyChain.sol":{"ExampleSupplyChain":{"abi":[{"inputs":[],"stateMutability":"nonpayable","type":"constructor"},{"inputs":[{"internalType":"address","name":"owner","type":"address"}],"name":"OwnableInvalidOwner","type":"error"},{"inputs":[{"internalType":"address","name":"account","type":"address"}],"name":"OwnableUnauthorizedAccount","type":"error"},{"anonymous":false,"inputs":[{"indexed":false,"internalType":"string","name":"lotType","type":"string"},{"indexed":false,"internalType":"string","name":"quantity","type":"string"},{"indexed":false,"internalType":"string","name":"operatorId","type":"string"},{"indexed":false,"internalType":"string","name":"originId","type":"string"},{"indexed":false,"internalType":"string","name":"lotNo","type":"string"},{"indexed":false,"internalType":"string","name":"transporterId","type":"string"}],"name":"CreateLotEvent","type":"event"},{"anonymous":false,"inputs":[{"indexed":false,"internalType":"string","name":"lotNos","type":"string"},{"indexed":false,"internalType":"string","name":"operatorId","type":"string"},{"indexed":false,"internalType":"string","name":"machineId","type":"string"},{"indexed":false,"internalType":"string","name":"processingHouseId","type":"string"},{"indexed":false,"internalType":"string","name":"timestamp","type":"string"},{"indexed":false,"internalType":"string","name":"firstProcessLotId","type":"string"}],"name":"FirstProcessEvent","type":"event"},{"anonymous":false,"inputs":[{"indexed":true,"internalType":"address","name":"previousOwner","type":"address"},{"indexed":true,"internalType":"address","name":"newOwner","type":"address"}],"name":"OwnershipTransferred","type":"event"},{"anonymous":false,"inputs":[{"indexed":false,"internalType":"string","name":"secondProcessLotId","type":"string"},{"indexed":false,"internalType":"string","name":"operatorId","type":"string"},{"indexed":false,"internalType":"string","name":"packageId","type":"string"},{"indexed":false,"internalType":"string","name":"weight","type":"string"},{"indexed":false,"internalType":"string","name":"packagingType","type":"string"},{"indexed":false,"internalType":"string","name":"packingLotId","type":"string"}],"name":"PackagingEvent","type":"event"},{"anonymous":false,"inputs":[{"indexed":false,"internalType":"string","name":"firstProcessLotIds","type":"string"},{"indexed":false,"internalType":"string","name":"machineId","type":"string"},{"indexed":false,"internalType":"string","name":"operatorId","type":"string"},{"indexed":false,"internalType":"string","name":"secondProcessOutputLotId","type":"string"},{"indexed":false,"internalType":"string","name":"secondProcessLotId","type":"string"}],"name":"SecondProcessEvent","type":"event"},{"anonymous":false,"inputs":[{"indexed":false,"internalType":"string","name":"packageId","type":"string"},{"indexed":false,"internalType":"string","name":"operatorId","type":"string"},{"indexed":false,"internalType":"string","name":"transporterId","type":"string"},{"indexed":false,"internalType":"string","name":"cartonId","type":"string"},{"indexed":false,"internalType":"string","name":"transportLotId","type":"string"}],"name":"TransportEvent","type":"event"},{"inputs":[],"name":"_firstProcessLotId","outputs":[{"internalType":"uint256","name":"","type":"uint256"}],"stateMutability":"view","type":"function"},{"inputs":[],"name":"_packingLotId","outputs":[{"internalType":"uint256","name":"","type":"uint256"}],"stateMutability":"view","type":"function"},{"inputs":[],"name":"_secondProcessLotId","outputs":[{"internalType":"uint256","name":"","type":"uint256"}],"stateMutability":"view","type":"function"},{"inputs":[],"name":"_transportLotId","outputs":[{"internalType":"uint256","name":"","type":"uint256"}],"stateMutability":"view","type":"function"},{"inputs":[{"internalType":"string","name":"lotType","type":"string"},{"internalType":"string","name":"quantity","type":"string"},{"internalType":"string","name":"operatorId","type":"string"},{"internalType":"string","name":"originId","type":"string"},{"internalType":"string","name":"lotNo","type":"string"},{"internalType":"string","name":"transporterId","type":"string"}],"name":"createLot","outputs":[],"stateMutability":"nonpayable","type":"function"},{"inputs":[],"name":"owner","outputs":[{"internalType":"address","name":"","type":"address"}],"stateMutability":"view","type":"function"},{"inputs":[{"internalType":"string","name":"secondProcessLotId","type":"string"},{"internalType":"string","name":"operatorId","type":"string"},{"internalType":"string","name":"packageId","type":"string"},{"internalType":"string","name":"weight","type":"string"},{"internalType":"string","name":"packagingType","type":"string"}],"name":"packing","outputs":[],"stateMutability":"nonpayable","type":"function"},{"inputs":[{"internalType":"string","name":"lotNos","type":"string"},{"internalType":"string","name":"operatorId","type":"string"},{"internalType":"string","name":"machineId","type":"string"},{"internalType":"string","name":"processingHouseId","type":"string"},{"internalType":"string","name":"timestamp","type":"string"}],"name":"registerFirstProcess","outputs":[],"stateMutability":"nonpayable","type":"function"},{"inputs":[{"internalType":"string","name":"firstProcessLotIds","type":"string"},{"internalType":"string","name":"machineId","type":"string"},{"internalType":"string","name":"operatorId","type":"string"},{"internalType":"string","name":"secondProcessOutputLotId","type":"string"}],"name":"registerSecondProcess","outputs":[],"stateMutability":"nonpayable","type":"function"},{"inputs":[],"name":"renounceOwnership","outputs":[],"stateMutability":"nonpayable","type":"function"},{"inputs":[{"internalType":"address","name":"newOwner","type":"address"}],"name":"transferOwnership","outputs":[],"stateMutability":"nonpayable","type":"function"},{"inputs":[{"internalType":"string","name":"packageId","type":"string"},{"internalType":"string","name":"operatorId","type":"string"},{"internalType":"string","name":"transporterId","type":"string"},{"internalType":"string","name":"cartonId","type":"string"}],"name":"transport","outputs":[],"stateMutability":"nonpayable","type":"function"}],"evm":{"bytecode":{"linkReferences":{},"object":"6080604052348015600f57600080fd5b503380603557604051631e4fbdf760e01b81526000600482015260240160405180910390fd5b603c816041565b506091565b600080546001600160a01b038381166001600160a01b0319831681178455604051919092169283917f8be0079c531659141344cd1fd0a4f28419497f9722a3daafe3b4186f6b6457e09190a35050565b610c09806100a06000396000f3fe608060405234801561001057600080fd5b50600436106100d45760003560e01c8063ad2f19f311610081578063e5dbd1ae1161005b578063e5dbd1ae14610185578063f2fde38b14610198578063f342554c146101ab57600080fd5b8063ad2f19f31461014c578063c57397ec1461015f578063e32328101461017257600080fd5b80637b844d86116100b25780637b844d86146101085780638da5cb5b14610111578063ac366bc61461013957600080fd5b806334687fc5146100d9578063386a0d26146100f5578063715018a6146100fe575b600080fd5b6100e260015481565b6040519081526020015b60405180910390f35b6100e260025481565b6101066101b4565b005b6100e260035481565b60005460405173ffffffffffffffffffffffffffffffffffffffff90911681526020016100ec565b610106610147366004610747565b6101c8565b61010661015a366004610807565b610231565b61010661016d3660046108f3565b61029c565b610106610180366004610807565b6102e5565b610106610193366004610747565b610330565b6101066101a6366004610a09565b61037a565b6100e260045481565b6101bc6103e3565b6101c66000610436565b565b6001600460008282546101db9190610a46565b925050819055507f5a6ec825b52239f3c530cc18dca698150d270962d2021703403dcd6815b1af61848484846102126004546104ab565b604051610223959493929190610ae4565b60405180910390a150505050565b60018060008282546102439190610a46565b925050819055507fd494bd9dcaeef0e3e0fd19a0b13af05abf8ca5ffd5e70724ed987b2fcfa443d3858585858561027b6001546104ab565b60405161028d96959493929190610b51565b60405180910390a15050505050565b7f8982a390c0fb1688e369d1ab91e529cae84e472205007ac93be646ec121f94108686868686866040516102d596959493929190610b51565b60405180910390a1505050505050565b6001600360008282546102f89190610a46565b925050819055507fc779766e64dba61c56c17693faa61ae802bcdc203a1479bfb4970edd3ab7e64f858585858561027b6003546104ab565b6001600260008282546103439190610a46565b925050819055507f14b6c7296a7ef1f1d61274d04d7364309a7a32fbb21087fb4c15a5d1534ac899848484846102126002546104ab565b6103826103e3565b73ffffffffffffffffffffffffffffffffffffffff81166103d7576040517f1e4fbdf7000000000000000000000000000000000000000000000000000000008152600060048201526024015b60405180910390fd5b6103e081610436565b50565b60005473ffffffffffffffffffffffffffffffffffffffff1633146101c6576040517f118cdaa70000000000000000000000000000000000000000000000000000000081523360048201526024016103ce565b6000805473ffffffffffffffffffffffffffffffffffffffff8381167fffffffffffffffffffffffff0000000000000000000000000000000000000000831681178455604051919092169283917f8be0079c531659141344cd1fd0a4f28419497f9722a3daafe3b4186f6b6457e09190a35050565b606060006104b883610569565b600101905060008167ffffffffffffffff8111156104d8576104d861064c565b6040519080825280601f01601f191660200182016040528015610502576020820181803683370190505b5090508181016020015b7fffffffffffffffffffffffffffffffffffffffffffffffffffffffffffffffff017f3031323334353637383961626364656600000000000000000000000000000000600a86061a8153600a850494508461050c57509392505050565b6000807a184f03e93ff9f4daa797ed6e38ed64bf6a1f01000000000000000083106105b2577a184f03e93ff9f4daa797ed6e38ed64bf6a1f010000000000000000830492506040015b6d04ee2d6d415b85acef810000000083106105de576d04ee2d6d415b85acef8100000000830492506020015b662386f26fc1000083106105fc57662386f26fc10000830492506010015b6305f5e1008310610614576305f5e100830492506008015b612710831061062857612710830492506004015b6064831061063a576064830492506002015b600a8310610646576001015b92915050565b7f4e487b7100000000000000000000000000000000000000000000000000000000600052604160045260246000fd5b600082601f83011261068c57600080fd5b813567ffffffffffffffff8111156106a6576106a661064c565b6040517fffffffffffffffffffffffffffffffffffffffffffffffffffffffffffffffe0603f7fffffffffffffffffffffffffffffffffffffffffffffffffffffffffffffffe0601f8501160116810181811067ffffffffffffffff821117156107125761071261064c565b60405281815283820160200185101561072a57600080fd5b816020850160208301376000918101602001919091529392505050565b6000806000806080858703121561075d57600080fd5b843567ffffffffffffffff81111561077457600080fd5b6107808782880161067b565b945050602085013567ffffffffffffffff81111561079d57600080fd5b6107a98782880161067b565b935050604085013567ffffffffffffffff8111156107c657600080fd5b6107d28782880161067b565b925050606085013567ffffffffffffffff8111156107ef57600080fd5b6107fb8782880161067b565b91505092959194509250565b600080600080600060a0868803121561081f57600080fd5b853567ffffffffffffffff81111561083657600080fd5b6108428882890161067b565b955050602086013567ffffffffffffffff81111561085f57600080fd5b61086b8882890161067b565b945050604086013567ffffffffffffffff81111561088857600080fd5b6108948882890161067b565b935050606086013567ffffffffffffffff8111156108b157600080fd5b6108bd8882890161067b565b925050608086013567ffffffffffffffff8111156108da57600080fd5b6108e68882890161067b565b9150509295509295909350565b60008060008060008060c0878903121561090c57600080fd5b863567ffffffffffffffff81111561092357600080fd5b61092f89828a0161067b565b965050602087013567ffffffffffffffff81111561094c57600080fd5b61095889828a0161067b565b955050604087013567ffffffffffffffff81111561097557600080fd5b61098189828a0161067b565b945050606087013567ffffffffffffffff81111561099e57600080fd5b6109aa89828a0161067b565b935050608087013567ffffffffffffffff8111156109c757600080fd5b6109d389828a0161067b565b92505060a087013567ffffffffffffffff8111156109f057600080fd5b6109fc89828a0161067b565b9150509295509295509295565b600060208284031215610a1b57600080fd5b813573ffffffffffffffffffffffffffffffffffffffff81168114610a3f57600080fd5b9392505050565b80820180821115610646577f4e487b7100000000000000000000000000000000000000000000000000000000600052601160045260246000fd5b6000815180845260005b81811015610aa657602081850181015186830182015201610a8a565b5060006020828601015260207fffffffffffffffffffffffffffffffffffffffffffffffffffffffffffffffe0601f83011685010191505092915050565b60a081526000610af760a0830188610a80565b8281036020840152610b098188610a80565b90508281036040840152610b1d8187610a80565b90508281036060840152610b318186610a80565b90508281036080840152610b458185610a80565b98975050505050505050565b60c081526000610b6460c0830189610a80565b8281036020840152610b768189610a80565b90508281036040840152610b8a8188610a80565b90508281036060840152610b9e8187610a80565b90508281036080840152610bb28186610a80565b905082810360a0840152610bc68185610a80565b999850505050505050505056fea264697066735822122082c23d1191b29394075afc2721c46d318240c296857e2681b52bb973e3b30fcd64736f6c634300081a0033","opcodes":"PUSH1 0x80 PUSH1 0x40 MSTORE CALLVALUE DUP1 ISZERO PUSH1 0xF JUMPI PUSH1 0x0 DUP1 REVERT JUMPDEST POP CALLER DUP1 PUSH1 0x35 JUMPI PUSH1 0x40 MLOAD PUSH4 0x1E4FBDF7 PUSH1 0xE0 SHL DUP2 MSTORE PUSH1 0x0 PUSH1 0x4 DUP3 ADD MSTORE PUSH1 0x24 ADD PUSH1 0x40 MLOAD DUP1 SWAP2 SUB SWAP1 REVERT JUMPDEST PUSH1 0x3C DUP2 PUSH1 0x41 JUMP JUMPDEST POP PUSH1 0x91 JUMP JUMPDEST PUSH1 0x0 DUP1 SLOAD PUSH1 0x1 PUSH1 0x1 PUSH1 0xA0 SHL SUB DUP4 DUP2 AND PUSH1 0x1 PUSH1 0x1 PUSH1 0xA0 SHL SUB NOT DUP4 AND DUP2 OR DUP5 SSTORE PUSH1 0x40 MLOAD SWAP2 SWAP1 SWAP3 AND SWAP3 DUP4 SWAP2 PUSH32 0x8BE0079C531659141344CD1FD0A4F28419497F9722A3DAAFE3B4186F6B6457E0 SWAP2 SWAP1 LOG3 POP POP JUMP JUMPDEST PUSH2 0xC09 DUP1 PUSH2 0xA0 PUSH1 0x0 CODECOPY PUSH1 0x0 RETURN INVALID PUSH1 0x80 PUSH1 0x40 MSTORE CALLVALUE DUP1 ISZERO PUSH2 0x10 JUMPI PUSH1 0x0 DUP1 REVERT JUMPDEST POP PUSH1 0x4 CALLDATASIZE LT PUSH2 0xD4 JUMPI PUSH1 0x0 CALLDATALOAD PUSH1 0xE0 SHR DUP1 PUSH4 0xAD2F19F3 GT PUSH2 0x81 JUMPI DUP1 PUSH4 0xE5DBD1AE GT PUSH2 0x5B JUMPI DUP1 PUSH4 0xE5DBD1AE EQ PUSH2 0x185 JUMPI DUP1 PUSH4 0xF2FDE38B EQ PUSH2 0x198 JUMPI DUP1 PUSH4 0xF342554C EQ PUSH2 0x1AB JUMPI PUSH1 0x0 DUP1 REVERT JUMPDEST DUP1 PUSH4 0xAD2F19F3 EQ PUSH2 0x14C JUMPI DUP1 PUSH4 0xC57397EC EQ PUSH2 0x15F JUMPI DUP1 PUSH4 0xE3232810 EQ PUSH2 0x172 JUMPI PUSH1 0x0 DUP1 REVERT JUMPDEST DUP1 PUSH4 0x7B844D86 GT PUSH2 0xB2 JUMPI DUP1 PUSH4 0x7B844D86 EQ PUSH2 0x108 JUMPI DUP1 PUSH4 0x8DA5CB5B EQ PUSH2 0x111 JUMPI DUP1 PUSH4 0xAC366BC6 EQ PUSH2 0x139 JUMPI PUSH1 0x0 DUP1 REVERT JUMPDEST DUP1 PUSH4 0x34687FC5 EQ PUSH2 0xD9 JUMPI DUP1 PUSH4 0x386A0D26 EQ PUSH2 0xF5 JUMPI DUP1 PUSH4 0x715018A6 EQ PUSH2 0xFE JUMPI JUMPDEST PUSH1 0x0 DUP1 REVERT JUMPDEST PUSH2 0xE2 PUSH1 0x1 SLOAD DUP2 JUMP JUMPDEST PUSH1 0x40 MLOAD SWAP1 DUP2 MSTORE PUSH1 0x20 ADD JUMPDEST PUSH1 0x40 MLOAD DUP1 SWAP2 SUB SWAP1 RETURN JUMPDEST PUSH2 0xE2 PUSH1 0x2 SLOAD DUP2 JUMP JUMPDEST PUSH2 0x106 PUSH2 0x1B4 JUMP JUMPDEST STOP JUMPDEST PUSH2 0xE2 PUSH1 0x3 SLOAD DUP2 JUMP JUMPDEST PUSH1 0x0 SLOAD PUSH1 0x40 MLOAD PUSH20 0xFFFFFFFFFFFFFFFFFFFFFFFFFFFFFFFFFFFFFFFF SWAP1 SWAP2 AND DUP2 MSTORE PUSH1 0x20 ADD PUSH2 0xEC JUMP JUMPDEST PUSH2 0x106 PUSH2 0x147 CALLDATASIZE PUSH1 0x4 PUSH2 0x747 JUMP JUMPDEST PUSH2 0x1C8 JUMP JUMPDEST PUSH2 0x106 PUSH2 0x15A CALLDATASIZE PUSH1 0x4 PUSH2 0x807 JUMP JUMPDEST PUSH2 0x231 JUMP JUMPDEST PUSH2 0x106 PUSH2 0x16D CALLDATASIZE PUSH1 0x4 PUSH2 0x8F3 JUMP JUMPDEST PUSH2 0x29C JUMP JUMPDEST PUSH2 0x106 PUSH2 0x180 CALLDATASIZE PUSH1 0x4 PUSH2 0x807 JUMP JUMPDEST PUSH2 0x2E5 JUMP JUMPDEST PUSH2 0x106 PUSH2 0x193 CALLDATASIZE PUSH1 0x4 PUSH2 0x747 JUMP JUMPDEST PUSH2 0x330 JUMP JUMPDEST PUSH2 0x106 PUSH2 0x1A6 CALLDATASIZE PUSH1 0x4 PUSH2 0xA09 JUMP JUMPDEST PUSH2 0x37A JUMP JUMPDEST PUSH2 0xE2 PUSH1 0x4 SLOAD DUP2 JUMP JUMPDEST PUSH2 0x1BC PUSH2 0x3E3 JUMP JUMPDEST PUSH2 0x1C6 PUSH1 0x0 PUSH2 0x436 JUMP JUMPDEST JUMP JUMPDEST PUSH1 0x1 PUSH1 0x4 PUSH1 0x0 DUP3 DUP3 SLOAD PUSH2 0x1DB SWAP2 SWAP1 PUSH2 0xA46 JUMP JUMPDEST SWAP3 POP POP DUP2 SWAP1 SSTORE POP PUSH32 0x5A6EC825B52239F3C530CC18DCA698150D270962D2021703403DCD6815B1AF61 DUP5 DUP5 DUP5 DUP5 PUSH2 0x212 PUSH1 0x4 SLOAD PUSH2 0x4AB JUMP JUMPDEST PUSH1 0x40 MLOAD PUSH2 0x223 SWAP6 SWAP5 SWAP4 SWAP3 SWAP2 SWAP1 PUSH2 0xAE4 JUMP JUMPDEST PUSH1 0x40 MLOAD DUP1 SWAP2 SUB SWAP1 LOG1 POP POP POP POP JUMP JUMPDEST PUSH1 0x1 DUP1 PUSH1 0x0 DUP3 DUP3 SLOAD PUSH2 0x243 SWAP2 SWAP1 PUSH2 0xA46 JUMP JUMPDEST SWAP3 POP POP DUP2 SWAP1 SSTORE POP PUSH32 0xD494BD9DCAEEF0E3E0FD19A0B13AF05ABF8CA5FFD5E70724ED987B2FCFA443D3 DUP6 DUP6 DUP6 DUP6 DUP6 PUSH2 0x27B PUSH1 0x1 SLOAD PUSH2 0x4AB JUMP JUMPDEST PUSH1 0x40 MLOAD PUSH2 0x28D SWAP7 SWAP6 SWAP5 SWAP4 SWAP3 SWAP2 SWAP1 PUSH2 0xB51 JUMP JUMPDEST PUSH1 0x40 MLOAD DUP1 SWAP2 SUB SWAP1 LOG1 POP POP POP POP POP JUMP JUMPDEST PUSH32 0x8982A390C0FB1688E369D1AB91E529CAE84E472205007AC93BE646EC121F9410 DUP7 DUP7 DUP7 DUP7 DUP7 DUP7 PUSH1 0x40 MLOAD PUSH2 0x2D5 SWAP7 SWAP6 SWAP5 SWAP4 SWAP3 SWAP2 SWAP1 PUSH2 0xB51 JUMP JUMPDEST PUSH1 0x40 MLOAD DUP1 SWAP2 SUB SWAP1 LOG1 POP POP POP POP POP POP JUMP JUMPDEST PUSH1 0x1 PUSH1 0x3 PUSH1 0x0 DUP3 DUP3 SLOAD PUSH2 0x2F8 SWAP2 SWAP1 PUSH2 0xA46 JUMP JUMPDEST SWAP3 POP POP DUP2 SWAP1 SSTORE POP PUSH32 0xC779766E64DBA61C56C17693FAA61AE802BCDC203A1479BFB4970EDD3AB7E64F DUP6 DUP6 DUP6 DUP6 DUP6 PUSH2 0x27B PUSH1 0x3 SLOAD PUSH2 0x4AB JUMP JUMPDEST PUSH1 0x1 PUSH1 0x2 PUSH1 0x0 DUP3 DUP3 SLOAD PUSH2 0x343 SWAP2 SWAP1 PUSH2 0xA46 JUMP JUMPDEST SWAP3 POP POP DUP2 SWAP1 SSTORE POP PUSH32 0x14B6C7296A7EF1F1D61274D04D7364309A7A32FBB21087FB4C15A5D1534AC899 DUP5 DUP5 DUP5 DUP5 PUSH2 0x212 PUSH1 0x2 SLOAD PUSH2 0x4AB JUMP JUMPDEST PUSH2 0x382 PUSH2 0x3E3 JUMP JUMPDEST PUSH20 0xFFFFFFFFFFFFFFFFFFFFFFFFFFFFFFFFFFFFFFFF DUP2 AND PUSH2 0x3D7 JUMPI PUSH1 0x40 MLOAD PUSH32 0x1E4FBDF700000000000000000000000000000000000000000000000000000000 DUP2 MSTORE PUSH1 0x0 PUSH1 0x4 DUP3 ADD MSTORE PUSH1 0x24 ADD JUMPDEST PUSH1 0x40 MLOAD DUP1 SWAP2 SUB SWAP1 REVERT JUMPDEST PUSH2 0x3E0 DUP2 PUSH2 0x436 JUMP JUMPDEST POP JUMP JUMPDEST PUSH1 0x0 SLOAD PUSH20 0xFFFFFFFFFFFFFFFFFFFFFFFFFFFFFFFFFFFFFFFF AND CALLER EQ PUSH2 0x1C6 JUMPI PUSH1 0x40 MLOAD PUSH32 0x118CDAA700000000000000000000000000000000000000000000000000000000 DUP2 MSTORE CALLER PUSH1 0x4 DUP3 ADD MSTORE PUSH1 0x24 ADD PUSH2 0x3CE JUMP JUMPDEST PUSH1 0x0 DUP1 SLOAD PUSH20 0xFFFFFFFFFFFFFFFFFFFFFFFFFFFFFFFFFFFFFFFF DUP4 DUP2 AND PUSH32 0xFFFFFFFFFFFFFFFFFFFFFFFF0000000000000000000000000000000000000000 DUP4 AND DUP2 OR DUP5 SSTORE PUSH1 0x40 MLOAD SWAP2 SWAP1 SWAP3 AND SWAP3 DUP4 SWAP2 PUSH32 0x8BE0079C531659141344CD1FD0A4F28419497F9722A3DAAFE3B4186F6B6457E0 SWAP2 SWAP1 LOG3 POP POP JUMP JUMPDEST PUSH1 0x60 PUSH1 0x0 PUSH2 0x4B8 DUP4 PUSH2 0x569 JUMP JUMPDEST PUSH1 0x1 ADD SWAP1 POP PUSH1 0x0 DUP2 PUSH8 0xFFFFFFFFFFFFFFFF DUP2 GT ISZERO PUSH2 0x4D8 JUMPI PUSH2 0x4D8 PUSH2 0x64C JUMP JUMPDEST PUSH1 0x40 MLOAD SWAP1 DUP1 DUP3 MSTORE DUP1 PUSH1 0x1F ADD PUSH1 0x1F NOT AND PUSH1 0x20 ADD DUP3 ADD PUSH1 0x40 MSTORE DUP1 ISZERO PUSH2 0x502 JUMPI PUSH1 0x20 DUP3 ADD DUP2 DUP1 CALLDATASIZE DUP4 CALLDATACOPY ADD SWAP1 POP JUMPDEST POP SWAP1 POP DUP2 DUP2 ADD PUSH1 0x20 ADD JUMPDEST PUSH32 0xFFFFFFFFFFFFFFFFFFFFFFFFFFFFFFFFFFFFFFFFFFFFFFFFFFFFFFFFFFFFFFFF ADD PUSH32 0x3031323334353637383961626364656600000000000000000000000000000000 PUSH1 0xA DUP7 MOD BYTE DUP2 MSTORE8 PUSH1 0xA DUP6 DIV SWAP5 POP DUP5 PUSH2 0x50C JUMPI POP SWAP4 SWAP3 POP POP POP JUMP JUMPDEST PUSH1 0x0 DUP1 PUSH27 0x184F03E93FF9F4DAA797ED6E38ED64BF6A1F010000000000000000 DUP4 LT PUSH2 0x5B2 JUMPI PUSH27 0x184F03E93FF9F4DAA797ED6E38ED64BF6A1F010000000000000000 DUP4 DIV SWAP3 POP PUSH1 0x40 ADD JUMPDEST PUSH14 0x4EE2D6D415B85ACEF8100000000 DUP4 LT PUSH2 0x5DE JUMPI PUSH14 0x4EE2D6D415B85ACEF8100000000 DUP4 DIV SWAP3 POP PUSH1 0x20 ADD JUMPDEST PUSH7 0x2386F26FC10000 DUP4 LT PUSH2 0x5FC JUMPI PUSH7 0x2386F26FC10000 DUP4 DIV SWAP3 POP PUSH1 0x10 ADD JUMPDEST PUSH4 0x5F5E100 DUP4 LT PUSH2 0x614 JUMPI PUSH4 0x5F5E100 DUP4 DIV SWAP3 POP PUSH1 0x8 ADD JUMPDEST PUSH2 0x2710 DUP4 LT PUSH2 0x628 JUMPI PUSH2 0x2710 DUP4 DIV SWAP3 POP PUSH1 0x4 ADD JUMPDEST PUSH1 0x64 DUP4 LT PUSH2 0x63A JUMPI PUSH1 0x64 DUP4 DIV SWAP3 POP PUSH1 0x2 ADD JUMPDEST PUSH1 0xA DUP4 LT PUSH2 0x646 JUMPI PUSH1 0x1 ADD JUMPDEST SWAP3 SWAP2 POP POP JUMP JUMPDEST PUSH32 0x4E487B7100000000000000000000000000000000000000000000000000000000 PUSH1 0x0 MSTORE PUSH1 0x41 PUSH1 0x4 MSTORE PUSH1 0x24 PUSH1 0x0 REVERT JUMPDEST PUSH1 0x0 DUP3 PUSH1 0x1F DUP4 ADD SLT PUSH2 0x68C JUMPI PUSH1 0x0 DUP1 REVERT JUMPDEST DUP2 CALLDATALOAD PUSH8 0xFFFFFFFFFFFFFFFF DUP2 GT ISZERO PUSH2 0x6A6 JUMPI PUSH2 0x6A6 PUSH2 0x64C JUMP JUMPDEST PUSH1 0x40 MLOAD PUSH32 0xFFFFFFFFFFFFFFFFFFFFFFFFFFFFFFFFFFFFFFFFFFFFFFFFFFFFFFFFFFFFFFE0 PUSH1 0x3F PUSH32 0xFFFFFFFFFFFFFFFFFFFFFFFFFFFFFFFFFFFFFFFFFFFFFFFFFFFFFFFFFFFFFFE0 PUSH1 0x1F DUP6 ADD AND ADD AND DUP2 ADD DUP2 DUP2 LT PUSH8 0xFFFFFFFFFFFFFFFF DUP3 GT OR ISZERO PUSH2 0x712 JUMPI PUSH2 0x712 PUSH2 0x64C JUMP JUMPDEST PUSH1 0x40 MSTORE DUP2 DUP2 MSTORE DUP4 DUP3 ADD PUSH1 0x20 ADD DUP6 LT ISZERO PUSH2 0x72A JUMPI PUSH1 0x0 DUP1 REVERT JUMPDEST DUP2 PUSH1 0x20 DUP6 ADD PUSH1 0x20 DUP4 ADD CALLDATACOPY PUSH1 0x0 SWAP2 DUP2 ADD PUSH1 0x20 ADD SWAP2 SWAP1 SWAP2 MSTORE SWAP4 SWAP3 POP POP POP JUMP JUMPDEST PUSH1 0x0 DUP1 PUSH1 0x0 DUP1 PUSH1 0x80 DUP6 DUP8 SUB SLT ISZERO PUSH2 0x75D JUMPI PUSH1 0x0 DUP1 REVERT JUMPDEST DUP5 CALLDATALOAD PUSH8 0xFFFFFFFFFFFFFFFF DUP2 GT ISZERO PUSH2 0x774 JUMPI PUSH1 0x0 DUP1 REVERT JUMPDEST PUSH2 0x780 DUP8 DUP3 DUP9 ADD PUSH2 0x67B JUMP JUMPDEST SWAP5 POP POP PUSH1 0x20 DUP6 ADD CALLDATALOAD PUSH8 0xFFFFFFFFFFFFFFFF DUP2 GT ISZERO PUSH2 0x79D JUMPI PUSH1 0x0 DUP1 REVERT JUMPDEST PUSH2 0x7A9 DUP8 DUP3 DUP9 ADD PUSH2 0x67B JUMP JUMPDEST SWAP4 POP POP PUSH1 0x40 DUP6 ADD CALLDATALOAD PUSH8 0xFFFFFFFFFFFFFFFF DUP2 GT ISZERO PUSH2 0x7C6 JUMPI PUSH1 0x0 DUP1 REVERT JUMPDEST PUSH2 0x7D2 DUP8 DUP3 DUP9 ADD PUSH2 0x67B JUMP JUMPDEST SWAP3 POP POP PUSH1 0x60 DUP6 ADD CALLDATALOAD PUSH8 0xFFFFFFFFFFFFFFFF DUP2 GT ISZERO PUSH2 0x7EF JUMPI PUSH1 0x0 DUP1 REVERT JUMPDEST PUSH2 0x7FB DUP8 DUP3 DUP9 ADD PUSH2 0x67B JUMP JUMPDEST SWAP2 POP POP SWAP3 SWAP6 SWAP2 SWAP5 POP SWAP3 POP JUMP JUMPDEST PUSH1 0x0 DUP1 PUSH1 0x0 DUP1 PUSH1 0x0 PUSH1 0xA0 DUP7 DUP9 SUB SLT ISZERO PUSH2 0x81F JUMPI PUSH1 0x0 DUP1 REVERT JUMPDEST DUP6 CALLDATALOAD PUSH8 0xFFFFFFFFFFFFFFFF DUP2 GT ISZERO PUSH2 0x836 JUMPI PUSH1 0x0 DUP1 REVERT JUMPDEST PUSH2 0x842 DUP9 DUP3 DUP10 ADD PUSH2 0x67B JUMP JUMPDEST SWAP6 POP POP PUSH1 0x20 DUP7 ADD CALLDATALOAD PUSH8 0xFFFFFFFFFFFFFFFF DUP2 GT ISZERO PUSH2 0x85F JUMPI PUSH1 0x0 DUP1 REVERT JUMPDEST PUSH2 0x86B DUP9 DUP3 DUP10 ADD PUSH2 0x67B JUMP JUMPDEST SWAP5 POP POP PUSH1 0x40 DUP7 ADD CALLDATALOAD PUSH8 0xFFFFFFFFFFFFFFFF DUP2 GT ISZERO PUSH2 0x888 JUMPI PUSH1 0x0 DUP1 REVERT JUMPDEST PUSH2 0x894 DUP9 DUP3 DUP10 ADD PUSH2 0x67B JUMP JUMPDEST SWAP4 POP POP PUSH1 0x60 DUP7 ADD CALLDATALOAD PUSH8 0xFFFFFFFFFFFFFFFF DUP2 GT ISZERO PUSH2 0x8B1 JUMPI PUSH1 0x0 DUP1 REVERT JUMPDEST PUSH2 0x8BD DUP9 DUP3 DUP10 ADD PUSH2 0x67B JUMP JUMPDEST SWAP3 POP POP PUSH1 0x80 DUP7 ADD CALLDATALOAD PUSH8 0xFFFFFFFFFFFFFFFF DUP2 GT ISZERO PUSH2 0x8DA JUMPI PUSH1 0x0 DUP1 REVERT JUMPDEST PUSH2 0x8E6 DUP9 DUP3 DUP10 ADD PUSH2 0x67B JUMP JUMPDEST SWAP2 POP POP SWAP3 SWAP6 POP SWAP3 SWAP6 SWAP1 SWAP4 POP JUMP JUMPDEST PUSH1 0x0 DUP1 PUSH1 0x0 DUP1 PUSH1 0x0 DUP1 PUSH1 0xC0 DUP8 DUP10 SUB SLT ISZERO PUSH2 0x90C JUMPI PUSH1 0x0 DUP1 REVERT JUMPDEST DUP7 CALLDATALOAD PUSH8 0xFFFFFFFFFFFFFFFF DUP2 GT ISZERO PUSH2 0x923 JUMPI PUSH1 0x0 DUP1 REVERT JUMPDEST PUSH2 0x92F DUP10 DUP3 DUP11 ADD PUSH2 0x67B JUMP JUMPDEST SWAP7 POP POP PUSH1 0x20 DUP8 ADD CALLDATALOAD PUSH8 0xFFFFFFFFFFFFFFFF DUP2 GT ISZERO PUSH2 0x94C JUMPI PUSH1 0x0 DUP1 REVERT JUMPDEST PUSH2 0x958 DUP10 DUP3 DUP11 ADD PUSH2 0x67B JUMP JUMPDEST SWAP6 POP POP PUSH1 0x40 DUP8 ADD CALLDATALOAD PUSH8 0xFFFFFFFFFFFFFFFF DUP2 GT ISZERO PUSH2 0x975 JUMPI PUSH1 0x0 DUP1 REVERT JUMPDEST PUSH2 0x981 DUP10 DUP3 DUP11 ADD PUSH2 0x67B JUMP JUMPDEST SWAP5 POP POP PUSH1 0x60 DUP8 ADD CALLDATALOAD PUSH8 0xFFFFFFFFFFFFFFFF DUP2 GT ISZERO PUSH2 0x99E JUMPI PUSH1 0x0 DUP1 REVERT JUMPDEST PUSH2 0x9AA DUP10 DUP3 DUP11 ADD PUSH2 0x67B JUMP JUMPDEST SWAP4 POP POP PUSH1 0x80 DUP8 ADD CALLDATALOAD PUSH8 0xFFFFFFFFFFFFFFFF DUP2 GT ISZERO PUSH2 0x9C7 JUMPI PUSH1 0x0 DUP1 REVERT JUMPDEST PUSH2 0x9D3 DUP10 DUP3 DUP11 ADD PUSH2 0x67B JUMP JUMPDEST SWAP3 POP POP PUSH1 0xA0 DUP8 ADD CALLDATALOAD PUSH8 0xFFFFFFFFFFFFFFFF DUP2 GT ISZERO PUSH2 0x9F0 JUMPI PUSH1 0x0 DUP1 REVERT JUMPDEST PUSH2 0x9FC DUP10 DUP3 DUP11 ADD PUSH2 0x67B JUMP JUMPDEST SWAP2 POP POP SWAP3 SWAP6 POP SWAP3 SWAP6 POP SWAP3 SWAP6 JUMP JUMPDEST PUSH1 0x0 PUSH1 0x20 DUP3 DUP5 SUB SLT ISZERO PUSH2 0xA1B JUMPI PUSH1 0x0 DUP1 REVERT JUMPDEST DUP2 CALLDATALOAD PUSH20 0xFFFFFFFFFFFFFFFFFFFFFFFFFFFFFFFFFFFFFFFF DUP2 AND DUP2 EQ PUSH2 0xA3F JUMPI PUSH1 0x0 DUP1 REVERT JUMPDEST SWAP4 SWAP3 POP POP POP JUMP JUMPDEST DUP1 DUP3 ADD DUP1 DUP3 GT ISZERO PUSH2 0x646 JUMPI PUSH32 0x4E487B7100000000000000000000000000000000000000000000000000000000 PUSH1 0x0 MSTORE PUSH1 0x11 PUSH1 0x4 MSTORE PUSH1 0x24 PUSH1 0x0 REVERT JUMPDEST PUSH1 0x0 DUP2 MLOAD DUP1 DUP5 MSTORE PUSH1 0x0 JUMPDEST DUP2 DUP2 LT ISZERO PUSH2 0xAA6 JUMPI PUSH1 0x20 DUP2 DUP6 ADD DUP2 ADD MLOAD DUP7 DUP4 ADD DUP3 ADD MSTORE ADD PUSH2 0xA8A JUMP JUMPDEST POP PUSH1 0x0 PUSH1 0x20 DUP3 DUP7 ADD ADD MSTORE PUSH1 0x20 PUSH32 0xFFFFFFFFFFFFFFFFFFFFFFFFFFFFFFFFFFFFFFFFFFFFFFFFFFFFFFFFFFFFFFE0 PUSH1 0x1F DUP4 ADD AND DUP6 ADD ADD SWAP2 POP POP SWAP3 SWAP2 POP POP JUMP JUMPDEST PUSH1 0xA0 DUP2 MSTORE PUSH1 0x0 PUSH2 0xAF7 PUSH1 0xA0 DUP4 ADD DUP9 PUSH2 0xA80 JUMP JUMPDEST DUP3 DUP2 SUB PUSH1 0x20 DUP5 ADD MSTORE PUSH2 0xB09 DUP2 DUP9 PUSH2 0xA80 JUMP JUMPDEST SWAP1 POP DUP3 DUP2 SUB PUSH1 0x40 DUP5 ADD MSTORE PUSH2 0xB1D DUP2 DUP8 PUSH2 0xA80 JUMP JUMPDEST SWAP1 POP DUP3 DUP2 SUB PUSH1 0x60 DUP5 ADD MSTORE PUSH2 0xB31 DUP2 DUP7 PUSH2 0xA80 JUMP JUMPDEST SWAP1 POP DUP3 DUP2 SUB PUSH1 0x80 DUP5 ADD MSTORE PUSH2 0xB45 DUP2 DUP6 PUSH2 0xA80 JUMP JUMPDEST SWAP9 SWAP8 POP POP POP POP POP POP POP POP JUMP JUMPDEST PUSH1 0xC0 DUP2 MSTORE PUSH1 0x0 PUSH2 0xB64 PUSH1 0xC0 DUP4 ADD DUP10 PUSH2 0xA80 JUMP JUMPDEST DUP3 DUP2 SUB PUSH1 0x20 DUP5 ADD MSTORE PUSH2 0xB76 DUP2 DUP10 PUSH2 0xA80 JUMP JUMPDEST SWAP1 POP DUP3 DUP2 SUB PUSH1 0x40 DUP5 ADD MSTORE PUSH2 0xB8A DUP2 DUP9 PUSH2 0xA80 JUMP JUMPDEST SWAP1 POP DUP3 DUP2 SUB PUSH1 0x60 DUP5 ADD MSTORE PUSH2 0xB9E DUP2 DUP8 PUSH2 0xA80 JUMP JUMPDEST SWAP1 POP DUP3 DUP2 SUB PUSH1 0x80 DUP5 ADD MSTORE PUSH2 0xBB2 DUP2 DUP7 PUSH2 0xA80 JUMP JUMPDEST SWAP1 POP DUP3 DUP2 SUB PUSH1 0xA0 DUP5 ADD MSTORE PUSH2 0xBC6 DUP2 DUP6 PUSH2 0xA80 JUMP JUMPDEST SWAP10 SWAP9 POP POP POP POP POP POP POP POP POP JUMP INVALID LOG2 PUSH5 0x6970667358 0x22 SLT KECCAK256 DUP3 0xC2 RETURNDATASIZE GT SWAP2 0xB2 SWAP4 SWAP5 SMOD GAS 0xFC 0x27 0x21 0xC4 PUSH14 0x318240C296857E2681B52BB973E3 0xB3 0xF 0xCD PUSH5 0x736F6C6343 STOP ADDMOD BYTE STOP CALLER "},"methodIdentifiers":{"_firstProcessLotId()":"34687fc5","_packingLotId()":"7b844d86","_secondProcessLotId()":"386a0d26","_transportLotId()":"f342554c","createLot(string,string,string,string,string,string)":"c57397ec","owner()":"8da5cb5b","packing(string,string,string,string,string)":"e3232810","registerFirstProcess(string,string,string,string,string)":"ad2f19f3","registerSecondProcess(string,string,string,string)":"e5dbd1ae","renounceOwnership()":"715018a6","transferOwnership(address)":"f2fde38b","transport(string,string,string,string)":"ac366bc6"}}}}}